:020000041000EA
:1000000000B5324B212058609868022188439860DF
:10001000D860186158612E4B002199600221596106
:100020000121F02299502B49196001219960352056
:1000300000F044F80222904214D00621196600F024
:1000400034F8196E01211966002018661A6600F04E
:100050002CF8196E196E196E052000F02FF8012189
:100060000842F9D1002199601B49196000215960AB
:100070001A491B48016001219960EB211966A021F2
:10008000196600F012F800219960164914480160C1
:100090000121996001BC002800D000471248134993
:1000A000086003C880F30888084703B5996A0420EC
:1000B0000142FBD001200142F8D103BD02B5186610
:1000C0001866FFF7F2FF186E186E02BD00000240BE
:1000D000000000180000070000035F00212200005C
:1000E000F4000018222000A00001001008ED00E03C
:1000F00000000000000000000000000074B24E7A12
:1001000000200420F7010010C3010010C5010010F9
:10011000C1010010C1010010C1010010C101001097
:10012000C1010010C1010010C1010010C701001081
:10013000C1010010C1010010C9010010CB01001065
:10014000CD010010CD010010CD010010CD01001037
:10015000CD010010CD010010CD010010CD01001027
:10016000CD010010CD010010CD010010CD01001017
:10017000CD010010CD010010CD010010CD01001007
:10018000CD010010CD010010CD010010CD010010F7
:10019000CD010010CD010010CD010010CD010010E7
:1001A000CD010010CD010010CD010010CD010010D7
:1001B000CD010010CD010010CD010010CD010010C7
:1001C00000BE00BE00BE00BE00BE00BEEFF3058054
:1001D000103800BEF2EB887188190010A4190010C5
:1001E0003802001090A31AE71E481F49086006C88D
:1001F00081F3088810471D480068002801D019487D
:10020000F3E70DA40ECC002902D000F012F8F9E7B4
:100210001749184A002000E001C19142FCD116495B
:100220008847164988471649884700BEFDE701C937
:1002300001C29A42FBD37047A4190010C0000020ED
:10024000280300200C1C00100000042000000420E3
:100250000C1C0010001004200010042000000000FE
:10026000704700000000000008ED00E0000000D032
:100270002803002020080020ED140010E9030010DE
:10028000E5140010F8B5C0460448054B10B583428C
:1002900003D0044B002B00D0984710BD280300204A
:1002A000280300200000000006480749091A8B10A7
:1002B000C90FC91810B5491003D0044B002B00D04A
:1002C000984710BD280300202803002000000000EC
:1002D00010B5074C2378002B09D1FFF7D5FF054B4C
:1002E000002B02D0044800E000BF0123237010BDA2
:1002F000A80500200000000094180010054B10B560
:10030000002B03D00449054800E000BFFFF7CCFFF5
:1003100010BDC04600000000AC050020941800107D
:1003200010B50F2000F05AFED024802324061B02B3
:1003300063620E2000F052FE8023DB016362636182
:1003400010BDC046F0B5C646D026802700B536069B
:100350003F02FA240025A40020002900776100F064
:10036000FFFB20002900B76100F0FAFB0222524295
:10037000D317A4185D41C82CEED1002DECD19623E3
:100380001B019846C8200021776100F0E9FBC820D6
:100390000021B76100F0E4FB01235B429C46E0448E
:1003A0004346002BEED120002900776100F0D8FBF6
:1003B00020002900B76100F0D3FB00230222A4181B
:1003C0005D41FA239B00A342EDD1002DEBD18023A8
:1003D0007268DB011A4205D17361FA20400000F017
:1003E000D1FBB6E7B361F8E710B5FFF799FFFFF768
:1003F000A9FFC0460FB400B5084883B001F0BAF9B0
:10040000049B002B07D005A91800019101F050F8BA
:10041000034801F0AFF9012001F062F894180010D0
:10042000A418001010B5024800F004F810BDC04632
:100430000C07002030B5002589B0040009220021F6
:1004400001A8009501F020F80922002105A80495D3
:1004500001F01AF84B236A466846137004A90D226E
:1004600001F0D6F9152108222000694401F012F8A4
:1004700009B030BD70B5EFF3108C72B60D4D2B681E
:10048000002BFCD0BFF35F8F0724CB08C618C05CDD
:1004900001230C40A3401C000440034207D1034346
:1004A0003370BFF35F8F2C608CF3108870BD100029
:1004B000FFF7A0FF2C0100D0044A1078431CDBB2E8
:1004C000172B00D9102313707047C046D8020020A4
:1004D0000021044B044ABFF35F8F02C39342FAD159
:1004E0007047C046000100D0800100D0142310B531
:1004F0000100188804331B88984710BD162310B5D7
:100500000100188802331B88984710BDF8B547468C
:10051000CE4680B50F1E19D014239946043304002B
:100520000025012698464B461888434621681B88BB
:10053000984701C4431E9841013540420640AF42EE
:10054000F1D13000C0BCB946B046F8BD0126F8E78D
:100550000A4B1968EFF3108072B60A68002AFCD0C3
:10056000BFF35F8F1B68BFF35F8F00221A6080F3B9
:10057000108840BF002000217047C04618080020A6
:10058000F0B5DE4657464E464546E0B585B0EFF33A
:100590000582032313409A0011000392B64A525871
:1005A000904601229A40B54B91461A6031E043468D
:1005B0009B881BB2002B00DB9DE043469B79002B00
:1005C00000D0EFE0434608241C5F002C00DA17E15E
:1005D00042465269630094461B19DB0063449C68E1
:1005E000DD68631C00D113E1A54B03999C4661446F
:1005F0009A6A0B69A01A9B1A984200D20C61A04813
:1006000000F054FB241A8D41002D00DDF8E000D1EC
:100610002EE14B469A484363434608229B5E9A4626
:10062000002BC4DB424652695B0093465344DB0017
:100630009B445B469E68DF6800F038FB801BB94135
:100640000029B4DB002F00DAEDE05B468D4A1B6920
:10065000934200D1E0E041465A460820085E5288A5
:10066000000410435A465169984704000D002300C6
:100670002B4300D1D7E0002D00DBF0E0361BAF416B
:1006800034003D005B469C60DD600021595E00291E
:100690008DDB43465B6922009C462B0048004018D6
:1006A000C00060448668C768921BBB41002B00DA1B
:1006B0007DE74346664602000094019519810CE0EF
:1006C0007B00DB19DB00F318009801999C68DD685A
:1006D000001BA941002904DB1A000023D75E002F6C
:1006E000EEDA5B461F805346138043469B881BB25D
:1006F000002B00DA61E743461A69EFF3108172B606
:100700001368002BFCD0BFF35F8F43469B884246A3
:100710001BB29A4601235B4293801369BFF35F8F3C
:1007200000221A6081F310885346002B00DA44E758
:1007300043465B699C46082343449B4653465F00FF
:1007400043465744FF0008229A5E67445E46BC68F1
:10075000FD68002A19DB3B000094019567469C4622
:1007600004E01E000023F25E002A0BDB00980199D2
:1007700053009B18DB00FB189C68DD68001BA94137
:100780000029EEDA6346BC461F0053463380002141
:100790007B5E3A809A46002BD0DA43469B79002B49
:1007A00000D10FE700234246937143464646082195
:1007B000595E08364B1C23D047468C46556902E0EB
:1007C00006004B1C17D04B005B18DB00E8180A0032
:1007D000E95E43881BB2002BF2DA01235B42DC178F
:1007E0008360C4606245ECD031803B8994460380CD
:1007F0003A814B1CE7D16446B846002C00DBE7E6A3
:1008000040BF05B0F0BCBB46B246A946A046F0BD0D
:100810006B1C00D0E8E6F2E65B465C6920002369C9
:100820009847002821D15B4642461B8813811269F4
:10083000EFF3108372B611680029FCD0BFF35F8F0D
:100840004246594652880A804246514651801269B2
:10085000BFF35F8F0021116083F31088A7E608487B
:1008600000F024FA24184D410CE765682468FEE680
:10087000002C00D1CDE6C3E7FC0600203C7005400B
:10088000004005408105001070B52E4C2569002DF3
:1008900004D00A212C4800F079FA70BD2B4E0321B8
:1008A000300000F0F9F9E660FFF706FE284B03225E
:1008B0009C46D02322701B061B6801216370254BC8
:1008C0006044A3600F23800020610220638063697D
:1008D0004942A18019800231198647311D8358523F
:1008E00018315A5275325C39995218320131995285
:1008F00018320131995218320131995208351832A3
:100900009D520231183299521832013199521832DF
:1009100001319952183201319952183201319952EC
:100920001832013199520C4B0C49DC6001303562B0
:1009300000F002FA0121032000F0ECF9084B1D60E1
:10094000A7E7C046DC020020180800200040054050
:1009500040000034FFFF1000FC060020810500105D
:100960003860054070B5C646010000B50469EFF374
:10097000108C72B620680028FCD0BFF35F8F022075
:100980000D5E48696C0080466419E4004444002D03
:1009900001DB208848800869BFF35F8F002606606E
:1009A0008CF31088002D30DBE360638805980133F9
:1009B00020615B0406985B0CA26060611A1C002B2E
:1009C00021D090B22B04628018430A69EFF310869D
:1009D00072B61368002BFCD0BFF35F8F8B88238027
:1009E0008D800B69BFF35F8F00221A6086F3108839
:1009F0000B7801329A40CB6805498C4663441A60F3
:100A000040BCB04670BD0122DBE701204042F7E761
:100A10003C20000010B543890A14934233DD530093
:100A20009B184269DB00944604696344EFF3108C21
:100A300072B62268002AFCD0BFF35F8F5A8809047F
:100A400094B2090C8A4208D00369BFF35F8F002279
:100A50001A608CF31088002010BD8022120214430B
:100A60005C80012302698371BFF35F8F00211160F5
:100A70008CF31088054902788C469340C2680120A7
:100A800062441360E8E70020E6E7C0463C2000002F
:100A9000F0B504000D0006267642F717C646361953
:100AA0006F4100B582B08F4214D811D000F006F922
:100AB00032003B00121A8B41002B15DC002B44D076
:100AC0002000290000F004F902B080BCB846F0BD57
:100AD0008642EBD90026002700F0F0F832003B00F8
:100AE000121A8B41002BE9DD00F0E8F832003B00E0
:100AF000121A8B41002B0ADB00230193144B3200A6
:100B0000009314483B00FFF72DFF0028D8DBB046C8
:100B10000026BC46104A114F7B6A9C4504D8B96A2E
:100B20008845CDD99C45CBD11168EFF3108072B6C2
:100B30000B68002BFCD0BFF35F8F1368BFF35F8F90
:100B40001E6080F3108820BFE6E7002AB8D0CBE70C
:100B500051050010DC02002018080020004005406C
:100B600070B504000D0000F0A9F8001969410029D2
:100B700002DBFFF78DFF70BD012001494042F8E71D
:100B8000FFFFFF7F70B5060000F098F8FA2204001E
:100B90000D00002330000021920000F01FFC00191E
:100BA0006941002902DBFFF773FF70BD0120014995
:100BB0004042F8E7FFFFFF7FF0B5CE46474680B5DD
:100BC00004000D0083B0EFF30587002F3BD12F4EBB
:100BD00081463378F26804339B00916A9B58421A2D
:100BE0005B1A9A420ED320BF294A0020536AAB42B7
:100BF00003D3926A013091453CD803B0C0BCB946DA
:100C0000B046F0BD00F05AF822002B00121A8B41BA
:100C1000002B26DB1F4B2200009330002B00019796
:100C2000FFF7A0FE011E1CDD194BA8465A6A95422B
:100C300025D920BF3000FFF7EDFE154A0020536A8A
:100C40009845DAD8D5E7124A0020536A8B42D4D3AC
:100C5000926A0130A242D0D2581A421E9041C0B2CC
:100C6000CBE70B4A0020536AAB42C6D3926A0120FD
:100C70009145C2D9E81A421E9041C0B2BDE79B6AB5
:100C80009C42D7D99542D5D1D3E7C046DC0200209B
:100C9000004005405105001010B5024A0248FFF718
:100CA000E9FB10BDA8180010C40600200300416A2B
:100CB0000A00986A596A8A42FAD17047034B596A06
:100CC0000A00986A596A9142FAD17047004005407B
:100CD000064A536A9942FCD807D1044B02E05A6A8B
:100CE000914202D19A6A8242F9D37047004005408E
:100CF000054B064A1360064A136053609360D36045
:100D000013615361936170478080808000E400E04C
:100D100004E400E01F2318401E3B8340002905D057
:100D2000C021044A49005350136070478022014992
:100D30008B50FAE700E100E070B50D00EFF310868C
:100D400072B60F4A1368002BFCD0BFF35F8F0D4BB8
:100D500010309B6884001B590B4A934203D09D427C
:100D600001D000F0C9F9074B9B681D51BFF35F8F9D
:100D7000BFF35F8F0022024B1A6086F3108870BDAC
:100D8000240100D000ED00E0CD010010024B9C4694
:100D9000614489000160704740000034F8B5134D8C
:100DA000134E2C00FF27B5421ED22368002B0FD014
:100DB000FFF782FB01002800FFF7E8FFA780BFF3E1
:100DC0005F8F0834B4420FD223682500002BEFD187
:100DD000FFF772FB01002800FFF7D8FF2771BFF370
:100DE0005F8F0834B442EFD3F8BDC0462003002023
:100DF00028030020F8B5DE464E4657464546E0B586
:100E00008B4605000A991800160000F053FA0A9B59
:100E10006C001F02324B64199C46A4006444636852
:100E200081469F4200D967602B1FDBB29846012B99
:100E300030D9C02380229B01E31812011A60294B8C
:100E4000AD0059599A4600291BD12268760172409B
:100E5000E0268023164042465B01E3181E60012A0B
:100E600030D9802380229B01E31812011A60534677
:100E70004A4667605A51F0BCBB46B246A946A046F6
:100E8000F8BD586900F016FA431C5800C018033822
:100E9000FDD2DAE75B46012BCBD1C02303229B01B5
:100EA000E3181A60023AA3681A42FCD0E0232268D1
:100EB000760156401E4080230A4A5B019246E318A1
:100EC0001E60AD005A462168514003220A401A6054
:100ED00001225B469A40A3681A42FCD0C1E7C04693
:100EE00000800040C8060020F0B546464F46D64672
:100EF000C0B51F00344B44009C462418A400644431
:100F0000636888461600FF2B02D880235B0063606D
:100F1000031FDBB29A46012B30D9C02380229B01EC
:100F2000E31812011A60294B850059599946002986
:100F30001BD1226876017240E0268023164052467B
:100F40005B01E3181E60012A30D9802380229B01B7
:100F5000E31812011A6080235B0063604B465F5107
:100F6000E0BCBA46B146A846F0BD586900F0A2F907
:100F7000431C5800C0180338FDD2DAE74346012B62
:100F8000CBD1C02303229B01E3181A60023AA36865
:100F90001A42FCD0E0232268760156401E4080238E
:100FA0000A4A5B019146E3181E60850042462168AB
:100FB000514003220A401A60012342469340A2682E
:100FC0001342FCD0C1E7C04600800040C8060020A4
:100FD000014B8000C0587047C80600200123D02272
:100FE00083404021120693629361094A83009A1854
:100FF0001268C0005140C0220A4006498C46634432
:101000001A60054B9C460523604443607047C04608
:1010100004C0014004D0014000400140F8B5040084
:1010200020481D0017000E0000F044F901003800B0
:1010300000F040F9069B29041B0319432368002B89
:101040001EDB194B194DE21853425A4180235B01B4
:101050009C461203164B62441A60164B1A60170026
:101060002B689F43FBD1144B2660E2182123A0601C
:1010700013602368002BFCDA0823E1601360F8BDDD
:101080003F2322681340B342DBD1A3681B051B0D2D
:101090008342D6D1EE22E368D20213408B42D0D1F4
:1010A000EDE7C046001BB7000040FDBF08C0004090
:1010B00000E0004000F00040043000008023024ABD
:1010C0009B000B43D362704700800540AA23064A69
:1010D0001B0113602F230549D360054B196053682A
:1010E000002BFCDA7047C0460040024000B0FA0016
:1010F000006002407047C04610B50148FFF77AF91A
:10110000CC18001070B5074D074EB54209D2002427
:10111000013E761BB60808CD984723000134B34240
:10112000F9D170BD501800108C180010054B064AFC
:1011300006491A60064A074B1A6010000B6898436C
:10114000FBD1704700E00040BFCDFBFE08C000406F
:10115000FE7F3C0000F00040044BDB6C002B03D111
:101160008022034BD2021A607047C0460000115023
:101170004C201150044A054B1A60054A1368DB01E4
:101180008033FBD17047C046FFFFFF0100F00040F5
:1011900008C000404022034B9A675A671A67DA6614
:1011A0007047C04600F0014010B5FFF791F910BD3F
:1011B00070B5044D044C2800C022A16800F06AF903
:1011C000A56070BD0000002000ED00E0002310B518
:1011D000294C82B0A367FFF779FF0122274B1A60E1
:1011E000636C012BFCD10322254B1A60224A936BBE
:1011F000012BFCD1013300930121224A2248043300
:10120000FFF70CFF052301210093204A2048FFF738
:1012100005FF0022022104201E4BFFF765FE00227D
:10122000012105201C4BFFF75FFE00220021072053
:101230001A4BFFF759FE002200210820174BFFF739
:1012400053FE8023DB000093002200210920134B72
:10125000FFF7D0FD0022104B00210620FFF744FECF
:101260000420FFF7B5FE0E4900F024F8010000202D
:10127000FFF724FF02B010BD008000403CB00040EA
:1012800030B00040002F685900800240008C864733
:1012900000C00240001BB70040597307006CDC021D
:1012A00040420F0001480421014B18470003002071
:1012B0000D050010114A936F9B0813D210665166FA
:1012C000002905D0FFE7FFE7FFE7516F106F704778
:1012D00004B5002801D00020C04300F0A9FA002185
:1012E00004BDC046F0B5146E556E576F166FFFF70C
:1012F000E5FF1466556657671667F0BD000000D01D
:1013000010B50148FFF776F8D8180010132370B510
:101310001D78012D15D039DD1E48FFF7EFF80600C6
:101320001D48FFF7EBF81D4C80223100200000F033
:10133000B1F8022D27D01A48FFF7D8F8194B1860DA
:1013400070BD194B154C23606360A360E36023619B
:101350006361A361E36123626362A362E362236367
:101360006363A363E36323646364A364E364236547
:101370006365A365E36523666366A366E366236727
:101380006367A367E367094BA364D4E7034C074B88
:10139000A364D0E75344000053460000A804002093
:1013A0004C3300001407002001130010B11300108B
:1013B00007B5604601880A0A0230DF2AFAD1C9B2AD
:1013C000820804D3028840880004104300E00068CB
:1013D000014A5050039007BDA804002051434343E5
:1013E000C9188C46110C83B24B4310B4040C6143F2
:1013F00092B280B2504362431C041B0C001910BC13
:1014000059411304120CC018514161447047000047
:1014100010B50148FEF7EEFFF0180010132310B5C9
:1014200010481C78FFF76AF80100012C0AD003DD90
:1014300080220D4800F02EF80C48FFF757F80C4BAF
:10144000186010BD084C5422200000F023F823003F
:10145000084A80332168002900D122600434A34265
:10146000F8D1E9E753460000180700204C3300008C
:10147000140700201114001001480421014B1847E3
:10148000100300200D050010014B1B6818470000D9
:1014900010030020014B5B68184700001003002078
:1014A00010B5002800D110BD00F018F9FBE7C046C8
:1014B00010B5094A0300146884B0002C08D001223A
:1014C00000910648524203A9A047012004B010BD74
:1014D00000F050F90020F9E7F8060020A1140010F0
:1014E00000BEFDE710B5FFF7FBFFC04670B5FFF784
:1014F00009FE074D074EB54209D20024013E761B76
:10150000B60808CD984723000134B342F9D170BD25
:101510008C18001094180010030010B5080011007A
:101520001B68984710BDC046F0B546464F46D646A4
:10153000C0B5437D80460E001700002B46D0002A20
:101540003FDD4B1E9946244B0125002400209A467E
:101550000DE04B461B5D0D3B5A425341325DDBB201
:101560000A2A0BD02B00013401359F421ADD002CD2
:10157000EFD14346325D1B7D0A2AF3D1002BF1D116
:10158000A04204DA4346211A1B68301898474346A4
:1015900050461B6802219847013428002B00013572
:1015A0009F42E4DC874204DD4346391A1B68301849
:1015B0009847F619013E33780D3B5A425341424653
:1015C0001375E0BCBA46B146A846F0BD03681100E9
:1015D00030009847F5E7C04684190010F0B5DE46A4
:1015E00057464E464546E0B585B017001C0006003C
:1015F0000D00FFF763FB0023314A12184B41002B0B
:1016000059DB304908008A4600F01AF901906B1C3A
:1016100003D1300000F0CCF80500002C26D12A4B75
:1016200098462A4B1C68002C15D0002F21D1284F3A
:1016300002E02469002C0ED02368002BF9D03B680F
:10164000002B01D0A342F4D120002A003100C04772
:101650002469002CF0D1019B002B28D1280005B073
:10166000F0BCBB46B246A946A046F0BD194B984611
:10167000D7E7174B994602ABDF1D0A239B4602E0D2
:101680002469002CE7D02368002BF9D04B461B6857
:10169000002B01D0A342F3D12A0031002000C04723
:1016A0005B460122390020003B70C047E8E7504606
:1016B00000F0B6F8D2E70122074B5242A1E7C0463C
:1016C00040420F002003002019150010F0060020F2
:1016D000F406002029150010FFFFFF7FF0B5CE466D
:1016E000474680B583B06B460600DD1D2870FFF7C6
:1016F000E5FA00231A4A12184B41002B2BDB19493B
:101700000800884600F09CF8174B81461C68002CA6
:1017100014D0164F02E02469002C0FD02368002B50
:10172000F9D03B68002B01D0A342F4D12000012264
:101730002900FFF7F9FE2469002CEFD14B46002B5E
:1017400005D1300003B0C0BCB946B046F0BD40463C
:1017500000F066F8F5E70122054B5242CFE7C0469C
:1017600040420F0020030020F0060020F406002075
:10177000FFFFFF7F70B5040000F01AF8012301009D
:10178000050001222000FFF729FF084B1C68002CF0
:1017900006D06368002B05D098472469002CF8D147
:1017A000280070BD2469002CF3D1F9E7F006002071
:1017B00010B583070AD00300032102E001330B4276
:1017C00005D01A78002AF9D1181A10BD030019683B
:1017D0000C4A0D4C8A188A4322420FD15968094A93
:1017E00004338A188A43224208D15968054A0433CF
:1017F0008A188A432242F1D000E001331A78002A85
:10180000FBD1E1E7FFFEFEFE80808080F8B5C04698
:1018100001B40248844601BC604700BF3901002082
:1018200001B40248844601BC604700BF9902002011
:1018300001B40248844601BC604700BFC1020020D9
:1018400001B40248844601BC604700BFFD0100208E
:101850002D11001059110010A5120010791400105C
:101860000D1300101D140010CD1100107511001083
:1018700095110010A91100109D0D0010B11100105C
:1018800089080010F5100010F10C0010FD02001086
:04189000250400101B
:101894000A2A2A2A2050414E4943202A2A2A0A0089
:1018A4000A000000486172647761726520616C61AE
:1018B400726D20256420616C726561647920636CAB
:1018C40061696D656400000048617264206173732E
:1018D400657274006D697373696E6720646F7562F5
:1018E4006C652066756E6374696F6E00000000009D
:1018F40052656C6561736500626F6F74325F773235
:101904003571303830000000322E312E30000000A6
:101914007069636F5F77000053746570706572005F
:101924004A616E2031342032303235000500525085
:10193400DE65F4680C1C0010060052505422A29D6F
:101944002419001006005250861C03021C190010B2
:1019540006005250BBFF3CB614190010060052504A
:10196400ABB360530C19001006005250E182887F1B
:10197400FC18001006005250D3F07542F418001001
:041984000D0A000048
:10198800301900103C1900104819001054190010A3
:0C199800601900106C1900107819001084
:1019A40010B5084C2378002B0AD180230648074938
:1019B4005B051A68C25004338B42FAD101232370A9
:1019C40010BDC0461C080020C40500100001001012
:1019D40010B5024B0133984710BDC046C405002022
:1019E400034B1A68C0239B009343024A1360704759
:1019F4000C8001400C900140054B1A6880239B0029
:101A04005340C02292001340024A13607047C046FC
:101A14000C8001400C9001401423F0B5D6464F468B
:101A240046469A46814618880433C0B598460E0047
:101A34001B882749140098475346070018884346D3
:101A440024491B8898475346050018884346224971
:101A54001B8898478046FFF7A3FFB847A847FFF7BE
:101A6400CBFF002C1BD0C0212200082702204905EF
:101A74003D008B6A1D4018420BD0002C09D0131B6B
:101A84000D2B1FD84B461B78013C0B6601239C464B
:101A9400E1442300002D0CD11343002BE8D1FFF7C0
:101AA4009FFFC047FFF794FFE0BCBA46B146A84683
:101AB400F0BD002AF1D00B6E013A337013000136E9
:101AC4002343EAE7002DD3D0002AD1D0F3E7C04660
:101AD400494600004558000046430000F0B5C6469C
:101AE400150000B504001E000268EFF3108172B601
:101AF4001368002BFCD0BFF35F8F0423E356002B45
:101B04002DDB2268BFF35F8F0020106081F3108803
:101B1400D0221206127852B290469A4203D1002083
:101B240080BCB846F0BD00270BE02368BFF35F8F8D
:101B34001F6081F310882800310000F035F8002878
:101B4400EDD12268EFF3108172B61368002BFCD03C
:101B5400BFF35F8F23797F2BE7D9434602E0D0237D
:101B64001B061B6823712368BFF35F8F00221A6072
:101B740081F310880120D3E70268EFF3108172B675
:101B84001368002BFCD0BFF35F8FFF23037103683E
:101B9400BFF35F8F00221A6081F3108840BF704743
:101BA4007047C0460000000001B40248844601BCEE
:101BB400604700BFB90B00101000000000000000D7
:101BC4000000000000000000000000000000000011
:101BD40028030020000000000000000000000000B6
:101BE400503300004C3300005433000052330000E3
:101BF4004D5300004D4300005334000043340000B3
:081C04000000000000000000D8
:04000005100001E9FD
:00000001FF
